{
  "contractName": "HelloBlockchain",
  "abi": [
    {
      "inputs": [
        {
          "internalType": "uint256",
          "name": "_a",
          "type": "uint256"
        }
      ],
      "name": "setter",
      "outputs": [],
      "stateMutability": "nonpayable",
      "type": "function"
    },
    {
      "inputs": [],
      "name": "getter",
      "outputs": [
        {
          "internalType": "uint256",
          "name": "c",
          "type": "uint256"
        },
        {
          "internalType": "uint256",
          "name": "d",
          "type": "uint256"
        }
      ],
      "stateMutability": "view",
      "type": "function",
      "constant": true
    }
  ],
  "bytecode": "0x608060405234801561001057600080fd5b50610166806100206000396000f3fe608060405234801561001057600080fd5b50600436106100365760003560e01c8063993a04b71461003b578063d423740b1461005a575b600080fd5b610043610076565b6040516100519291906100a9565b60405180910390f35b610074600480360381019061006f9190610103565b610086565b005b600080600054600c915091509091565b8060008190555050565b6000819050919050565b6100a381610090565b82525050565b60006040820190506100be600083018561009a565b6100cb602083018461009a565b9392505050565b600080fd5b6100e081610090565b81146100eb57600080fd5b50565b6000813590506100fd816100d7565b92915050565b600060208284031215610119576101186100d2565b5b6000610127848285016100ee565b9150509291505056fea26469706673582212209268bd2594cba9a5e5f75a607c46e459c868e176b801b90e02b95ad5d38971c964736f6c634300080d0033",
  "immutableReferences": {},
  "source": "// SPDX-License-Identifier: MIT\npragma solidity ^0.8.13;\n\ncontract HelloBlockchain {\n    uint256 a;\n    \n    function setter(uint256 _a)public{\n        a = _a;\n    }\n    function getter()public view returns(uint256 c, uint256 d){\n        return (a,12);\n    }\n\n}",
  "sourcePath": "E:\\n4-2\\blockchain\\contracts\\HelloBlockchain.sol",
  "compiler": {
    "name": "solc",
    "version": "0.8.13+commit.abaa5c0e.Emscripten.clang"
  },
  "schemaVersion": "3.4.13",
  "updatedAt": "2023-04-17T17:09:27.407Z",
  "networkType": "ethereum",
  "devdoc": {
    "kind": "dev",
    "methods": {},
    "version": 1
  },
  "userdoc": {
    "kind": "user",
    "methods": {},
    "version": 1
  }
}