{
  "contractName": "PersonalDataRegistry",
  "abi": [
    {
      "inputs": [
        {
          "internalType": "string",
          "name": "name",
          "type": "string"
        },
        {
          "internalType": "string",
          "name": "email",
          "type": "string"
        }
      ],
      "name": "createPersonalData",
      "outputs": [],
      "stateMutability": "nonpayable",
      "type": "function"
    },
    {
      "inputs": [
        {
          "internalType": "address",
          "name": "personalDataAddress",
          "type": "address"
        }
      ],
      "name": "getPersonalData",
      "outputs": [
        {
          "internalType": "address payable",
          "name": "owner",
          "type": "address"
        },
        {
          "internalType": "string",
          "name": "name",
          "type": "string"
        },
        {
          "internalType": "string",
          "name": "email",
          "type": "string"
        }
      ],
      "stateMutability": "view",
      "type": "function",
      "constant": true
    }
  ],
  "bytecode": "0x608060405234801561001057600080fd5b5061103a806100206000396000f3fe60806040523480156200001157600080fd5b50600436106200003a5760003560e01c806322df6d24146200003f578063fac611ac1462000077575b600080fd5b6200005d6004803603810190620000579190620003b7565b62000097565b6040516200006e93929190620004b2565b60405180910390f35b6200009560048036038101906200008f91906200064e565b6200026d565b005b600060608060008060008673ffffffffffffffffffffffffffffffffffffffff1673ffffffffffffffffffffffffffffffffffffffff16815260200190815260200160002060009054906101000a900473ffffffffffffffffffffffffffffffffffffffff1690508073ffffffffffffffffffffffffffffffffffffffff16638da5cb5b6040518163ffffffff1660e01b8152600401602060405180830381865afa1580156200014b573d6000803e3d6000fd5b505050506040513d601f19601f8201168201806040525081019062000171919062000704565b8173ffffffffffffffffffffffffffffffffffffffff166306fdde036040518163ffffffff1660e01b8152600401600060405180830381865afa158015620001bd573d6000803e3d6000fd5b505050506040513d6000823e3d601f19601f82011682018060405250810190620001e89190620007b4565b8273ffffffffffffffffffffffffffffffffffffffff1663820e93f56040518163ffffffff1660e01b8152600401600060405180830381865afa15801562000234573d6000803e3d6000fd5b505050506040513d6000823e3d601f19601f820116820180604052508101906200025f9190620007b4565b935093509350509193909250565b6000338383604051620002809062000330565b6200028e93929190620004b2565b604051809103906000f080158015620002ab573d6000803e3d6000fd5b509050806000803373ffffffffffffffffffffffffffffffffffffffff1673ffffffffffffffffffffffffffffffffffffffff16815260200190815260200160002060006101000a81548173ffffffffffffffffffffffffffffffffffffffff021916908373ffffffffffffffffffffffffffffffffffffffff160217905550505050565b6107ff806200080683390190565b6000604051905090565b600080fd5b600080fd5b600073ffffffffffffffffffffffffffffffffffffffff82169050919050565b60006200037f8262000352565b9050919050565b620003918162000372565b81146200039d57600080fd5b50565b600081359050620003b18162000386565b92915050565b600060208284031215620003d057620003cf62000348565b5b6000620003e084828501620003a0565b91505092915050565b6000620003f68262000352565b9050919050565b6200040881620003e9565b82525050565b600081519050919050565b600082825260208201905092915050565b60005b838110156200044a5780820151818401526020810190506200042d565b838111156200045a576000848401525b50505050565b6000601f19601f8301169050919050565b60006200047e826200040e565b6200048a818562000419565b93506200049c8185602086016200042a565b620004a78162000460565b840191505092915050565b6000606082019050620004c96000830186620003fd565b8181036020830152620004dd818562000471565b90508181036040830152620004f3818462000471565b9050949350505050565b600080fd5b600080fd5b7f4e487b7100000000000000000000000000000000000000000000000000000000600052604160045260246000fd5b620005418262000460565b810181811067ffffffffffffffff8211171562000563576200056262000507565b5b80604052505050565b6000620005786200033e565b905062000586828262000536565b919050565b600067ffffffffffffffff821115620005a957620005a862000507565b5b620005b48262000460565b9050602081019050919050565b82818337600083830152505050565b6000620005e7620005e1846200058b565b6200056c565b90508281526020810184848401111562000606576200060562000502565b5b62000613848285620005c1565b509392505050565b600082601f830112620006335762000632620004fd565b5b813562000645848260208601620005d0565b91505092915050565b6000806040838503121562000668576200066762000348565b5b600083013567ffffffffffffffff8111156200068957620006886200034d565b5b62000697858286016200061b565b925050602083013567ffffffffffffffff811115620006bb57620006ba6200034d565b5b620006c9858286016200061b565b9150509250929050565b620006de81620003e9565b8114620006ea57600080fd5b50565b600081519050620006fe81620006d3565b92915050565b6000602082840312156200071d576200071c62000348565b5b60006200072d84828501620006ed565b91505092915050565b60006200074d62000747846200058b565b6200056c565b9050828152602081018484840111156200076c576200076b62000502565b5b620007798482856200042a565b509392505050565b600082601f830112620007995762000798620004fd565b5b8151620007ab84826020860162000736565b91505092915050565b600060208284031215620007cd57620007cc62000348565b5b600082015167ffffffffffffffff811115620007ee57620007ed6200034d565b5b620007fc8482850162000781565b9150509291505056fe60806040523480156200001157600080fd5b50604051620007ff380380620007ff833981810160405281019062000037919062000364565b826000806101000a81548173ffffffffffffffffffffffffffffffffffffffff021916908373ffffffffffffffffffffffffffffffffffffffff16021790555081600190805190602001906200008f929190620000b2565b508060029080519060200190620000a8929190620000b2565b5050505062000462565b828054620000c0906200042d565b90600052602060002090601f016020900481019282620000e4576000855562000130565b82601f10620000ff57805160ff191683800117855562000130565b8280016001018555821562000130579182015b828111156200012f57825182559160200191906001019062000112565b5b5090506200013f919062000143565b5090565b5b808211156200015e57600081600090555060010162000144565b5090565b6000604051905090565b600080fd5b600080fd5b600073ffffffffffffffffffffffffffffffffffffffff82169050919050565b6000620001a38262000176565b9050919050565b620001b58162000196565b8114620001c157600080fd5b50565b600081519050620001d581620001aa565b92915050565b600080fd5b600080fd5b6000601f19601f8301169050919050565b7f4e487b7100000000000000000000000000000000000000000000000000000000600052604160045260246000fd5b6200023082620001e5565b810181811067ffffffffffffffff82111715620002525762000251620001f6565b5b80604052505050565b60006200026762000162565b905062000275828262000225565b919050565b600067ffffffffffffffff821115620002985762000297620001f6565b5b620002a382620001e5565b9050602081019050919050565b60005b83811015620002d0578082015181840152602081019050620002b3565b83811115620002e0576000848401525b50505050565b6000620002fd620002f7846200027a565b6200025b565b9050828152602081018484840111156200031c576200031b620001e0565b5b62000329848285620002b0565b509392505050565b600082601f830112620003495762000348620001db565b5b81516200035b848260208601620002e6565b91505092915050565b60008060006060848603121562000380576200037f6200016c565b5b60006200039086828701620001c4565b935050602084015167ffffffffffffffff811115620003b457620003b362000171565b5b620003c28682870162000331565b925050604084015167ffffffffffffffff811115620003e657620003e562000171565b5b620003f48682870162000331565b9150509250925092565b7f4e487b7100000000000000000000000000000000000000000000000000000000600052602260045260246000fd5b600060028204905060018216806200044657607f821691505b6020821081036200045c576200045b620003fe565b5b50919050565b61038d80620004726000396000f3fe608060405234801561001057600080fd5b50600436106100415760003560e01c806306fdde0314610046578063820e93f5146100645780638da5cb5b14610082575b600080fd5b61004e6100a0565b60405161005b9190610279565b60405180910390f35b61006c61012e565b6040516100799190610279565b60405180910390f35b61008a6101bc565b60405161009791906102dc565b60405180910390f35b600180546100ad90610326565b80601f01602080910402602001604051908101604052809291908181526020018280546100d990610326565b80156101265780601f106100fb57610100808354040283529160200191610126565b820191906000526020600020905b81548152906001019060200180831161010957829003601f168201915b505050505081565b6002805461013b90610326565b80601f016020809104026020016040519081016040528092919081815260200182805461016790610326565b80156101b45780601f10610189576101008083540402835291602001916101b4565b820191906000526020600020905b81548152906001019060200180831161019757829003601f168201915b505050505081565b60008054906101000a900473ffffffffffffffffffffffffffffffffffffffff1681565b600081519050919050565b600082825260208201905092915050565b60005b8381101561021a5780820151818401526020810190506101ff565b83811115610229576000848401525b50505050565b6000601f19601f8301169050919050565b600061024b826101e0565b61025581856101eb565b93506102658185602086016101fc565b61026e8161022f565b840191505092915050565b600060208201905081810360008301526102938184610240565b905092915050565b600073ffffffffffffffffffffffffffffffffffffffff82169050919050565b60006102c68261029b565b9050919050565b6102d6816102bb565b82525050565b60006020820190506102f160008301846102cd565b92915050565b7f4e487b7100000000000000000000000000000000000000000000000000000000600052602260045260246000fd5b6000600282049050600182168061033e57607f821691505b602082108103610351576103506102f7565b5b5091905056fea2646970667358221220bbe6709f32d4caa94984dce5e2123378eafe0a7f9bfdf6a8cb5e0f29f743829464736f6c634300080d0033a26469706673582212205ea17a31abd73d733594bf04b5e203da2d62cd2ae8bc5194c3449fcd8acaa30064736f6c634300080d0033",
  "immutableReferences": {},
  "source": "// SPDX-License-Identifier: MIT\r\npragma solidity ^0.8.13;\r\n\r\ncontract PersonalData {\r\n    address payable public owner;\r\n    string public name;\r\n    string public email;\r\n\r\n    constructor(address payable _owner, string memory _name, string memory _email) {\r\n        owner = _owner;\r\n        name = _name;\r\n        email = _email;\r\n    }\r\n}\r\n\r\ncontract PersonalDataRegistry {\r\n    mapping(address => PersonalData) private personalDataMap;\r\n\r\n    function createPersonalData(string memory name, string memory email) public {\r\n        PersonalData personalData = new PersonalData(payable(msg.sender), name, email);\r\n        personalDataMap[payable(msg.sender)] = personalData;\r\n    }\r\n\r\n    function getPersonalData(address personalDataAddress) public view returns (address payable owner,string memory name, string memory email) {\r\n        PersonalData personalData = personalDataMap[personalDataAddress];\r\n        return (personalData.owner() ,personalData.name(), personalData.email());\r\n    }\r\n}",
  "sourcePath": "E:\\n4-2\\blockchain\\contracts\\test.sol",
  "compiler": {
    "name": "solc",
    "version": "0.8.13+commit.abaa5c0e.Emscripten.clang"
  },
  "schemaVersion": "3.4.13",
  "updatedAt": "2023-04-17T17:09:27.692Z",
  "networkType": "ethereum",
  "devdoc": {
    "kind": "dev",
    "methods": {},
    "version": 1
  },
  "userdoc": {
    "kind": "user",
    "methods": {},
    "version": 1
  }
}